:020000040800F2
:10000000582400209D010008BD2C00089D280008F0
:10001000B92C0008AF080008534400080000000095
:100020000000000000000000000000000F33000886
:10003000B308000800000000C12C0008C93D0008FA
:10004000B7010008B7010008B7010008B7010008B0
:10005000B7010008B7010008B7010008B7010008A0
:10006000B7010008B7010008C1080008B70100087F
:10007000B7010008B7010008B7010008B701000880
:10008000B7010008B7010008B7010008B701000870
:10009000B7010008B7010008B7010008B701000860
:1000A000B7010008B7010008B7010008B701000850
:1000B000B7010008B7010008B7010008B701000840
:1000C000B7010008B7010008B7010008B701000830
:1000D000B7010008B7010008B7010008B701000820
:1000E000B5080008B7010008B7010008B70100080B
:1000F000B7010008B7010008B7010008B701000800
:10010000B7010008B7010008B7010008B7010008EF
:10011000B7010008B7010008B7010008B7010008DF
:10012000B7010008B7010008B7010008B7010008CF
:10013000B7010008B7010008B7010008B7010008BF
:10014000B7010008A1280008B7010008B70100089E
:10015000B7010008B7010008B7010008B70100089F
:10016000B7010008B7010008B7010008B70100088F
:10017000B7010008B7010008B7010008000000003F
:10018000B7010008B7010008DFF80CD000F02CFB25
:1001900000480047655C0008582400200648804756
:1001A00006480047FEE7FEE7FEE7FEE7FEE7FEE75C
:1001B000FEE7FEE7FEE7FEE7693E0008890100086A
:1001C0002DE9F05F0546002092469B46884606468C
:1001D000814640241BE0284641464746224600F01F
:1001E0003DFA53465A46C01A914110D3114618465B
:1001F000224600F024FA2D1A67EB01084F462246EA
:100200000120002100F01BFA17EB00094E41201ECF
:10021000A4F10104DFDC484631462A46434600F09B
:1002200000B830BCBDE8C09F40EA01039B0703D083
:1002300009E008C9121F08C0042AFAD203E011F825
:10024000013B00F8013B521EF9D27047D2B201E0E7
:1002500000F8012B491EFBD270470022F6E710B5CB
:1002600013460A4604461946FFF7F0FF204610BD24
:10027000421C10F8011B0029FBD1801A70472DE9A0
:10028000FE4F804681EA0300C00F0C46009021F02B
:10029000004123F00045B8EB0200A94105D24046D9
:1002A000214690461C460B46024623F00040104370
:1002B00047D0270DC7F30A00C3F30A510290401A32
:1002C000019040286BDAC3F3130040F4801B0098C0
:1002D000924620B10023D2EB030A63EB0B0B01988B
:1002E0005946C0F14002504600F0A9F906460D46B5
:1002F00050465946019A00F0C1F910EB08006141DF
:10030000002487EA115284EAE7731A4340D0009A26
:1003100062B3019A012A4FEA075215DC001B61EB18
:1003200002014FF0004202EA0752CDE90042001CF0
:1003300041F5801132462B4600F0C1F903B000F0C0
:1003400045B840462146F9E7001B61EB0201001C5D
:1003500041F5801300185B412018A2F5001747EB08
:10036000030140EAD570B6196D4111E06D084FEAFE
:10037000360645EAC0754FEA0752001B61EB0201E1
:10038000001C41F5801149084FEA30000019514125
:1003900032462B4603B000F01CB800F081B900983B
:1003A000012240000023D0EB020263EBE0730098CF
:1003B00021464FEAE074B8EB000061EB0401E9E785
:1003C00083F000435BE781F0004158E730BCBDE8B3
:1003D000C08F30BCBDE8C04FFFF7DFBF2DE9FE4F37
:1003E00081EA030404F0004421F0004100944FF03E
:1003F000000B23F0004350EA01045ED052EA0304EC
:100400005BD0C3F30A54C1F30A552C44A4F2F3346D
:100410000194A0FB0254C1F3130141F48011C3F312
:10042000130343F4801301FB024400FB034E840AD0
:10043000970A44EA815447EA8357A4FB0768029568
:100440008D0A05FB07854FEA932C04FB0C54270506
:10045000029D4FEA065847EA1637B5EB08056EEBE2
:10046000070C870E920E47EA811742EA8312A7FB18
:100470000201B6EB0B0164EB00042B0D43EA0C33D5
:100480005E1844EB1C50DA465146E7FB0201C5F307
:1004900013044FEA0B3343EA14534FEA0432019C2E
:1004A00043EA0603A4F10C040294009CCDE900B4D5
:1004B00000F005F903B000F003B800200146F9E7A9
:1004C00030BCBDE8C08F2DE9F04D81EA030404F093
:1004D000004B21F0004514464FF0000A23F0004184
:1004E00050EA050220D054EA01021DD0C5F30A5794
:1004F0000246C5F31303C1F31300C1F30A5640F4D7
:10050000801543F48013A7EB0608101BD64608F2AB
:10051000FD3873EB050002D308F1010801E09218E1
:100520005B41B8F1000F03DA00200146BDE8F08D11
:1005300000204FF48011064684460EE0171B73EB33
:10054000050705D3121B63EB050306434CEA010CB8
:1005500049084FEA300092185B4150EA0107EDD19B
:1005600052EA030012D082EA040083EA050108433C
:1005700005D0101BAB4106D20122002306E0002269
:100580004FF0004302E06FF0010253101AEB060037
:100590004CEB085110EB0A0041EB0B01BDE8F04DAC
:1005A00000F07EB80EB5C10F80EAE0700844CA07BB
:1005B000002140F233438DE80E000A460B4600F05E
:1005C0007EF803B000BD0EB540F233410291002128
:1005D000CDE900110A460B4600F071F803B000BDEA
:1005E000C1F30A5210B5C1F3130140F2FF3341F4D5
:1005F00080119A4201DA002010BD40F233439A4242
:10060000A2F2334203DC524200F028F810BD9040C1
:1006100010BD30B50B46014600202022012409E020
:1006200021FA02F59D4205D303FA02F5491B04FAAB
:1006300002F52844151EA2F10102F1DC30BD202A8A
:1006400004DB203A00FA02F1002070479140C2F129
:10065000200320FA03F3194390407047202A04DB5B
:10066000203A21FA02F00021704721FA02F3D0402B
:10067000C2F120029140084319467047202A06DB48
:10068000CB17203A41FA02F043EAE07306E041FA60
:1006900002F3D040C2F1200291400843194670474E
:1006A00010B5141E73F1000408DA401C41F100017A
:1006B00092185B411A4301D120F0010010BD2DE9D1
:1006C000F04D92469B4611B1B1FA81F202E0B0FAC8
:1006D00080F220329046FFF7B2FF04460F4640EA10
:1006E0000A0041EA0B0153465A46084313D011460B
:1006F00053EA010019D0C8F140025046FFF7AEFF9F
:1007000005460E46504659464246FFF798FF0843B5
:1007100005D0012004E020463946BDE8F08D0020D8
:10072000054346EAE0762C4337430A986305E40A1A
:10073000A0EB08000022FD0A44EA47540A3002D523
:1007400000200146E9E7010510196941DDE9084586
:1007500000196941BDE8F04DA2E770B521F00043F2
:1007600003430CD0C1F30A550024D5EB040564EB18
:100770000403D617AD1AB34102DB0020014670BD59
:10078000201841EB025170BDC1F30A52C1F31301AD
:1007900040F2FF3341F480119A4202DA0020014610
:1007A000704740F233439A42A2F2334202DC524293
:1007B000FFF754BFFFF743BF30B5041E71F10004CB
:1007C00004DB4FF00044404264EB0101141E73F15E
:1007D000000405DB1C464FF00043524263EB040368
:1007E000994208BF904230BD064C074D06E0E068D4
:1007F00040F0010394E8070098471034AC42F6D368
:10080000FFF7C6FC80BF0008A0BF00082DE9F04D2F
:1008100000231A461B1A8A4103DB00200146BDE86B
:10082000F08DC1F30A52C1F3130141F480154FF06A
:10083000000BD10702D100186D41521E002704465B
:1008400040F2FF11384601EB620A3E4680460246FE
:1008500000204FF48011FFF701FFC2197141BB184E
:1008600046EB0100B4EB030C75EB000C04D3E41A67
:1008700065EB000517460E46241908F101006D418D
:1008800080463428E3DDF91946EB0600091BA84130
:1008900003D24FF0FF32134601E0002213461BEB58
:1008A000070046EB0A51BDE8F04DFFF7F9BE00BF67
:1008B000FEE7704710B54FF4005000F093F810BDFC
:1008C00010B5102000F08EF810BD72B600BFFEE724
:1008D00070B5044600F0AEF906462546681C10B116
:1008E00004480078054400BF00F0A4F9801BA8422A
:1008F000FAD370BD34000020B0B52DED048B82B06A
:100900000546102D42D1304602F02AFD02F01BFDB3
:10091000044602F0C4FE40B247423846FFF742FEAA
:1009200041EC190B9FED1B0B53EC102BFFF7CBFD8C
:1009300041EC180B96F9010053EC182BCDE900405F
:1009400016A003F089FD04F0010048B100201C4905
:10095000087002F0BBF81B4801681BA003F07CFD87
:1009600004F00200022805D101201A4908701AA0DB
:1009700003F072FD12480078022802D101201849C4
:1009800008704FF6FF7002F0C3FC00BF02B0BDEC70
:10099000048BB0BD000000000000004045585449E1
:1009A0002C20525353493D25662C204952513D2558
:1009B000642C2052535349323D25640A0000000044
:1009C00000000020180000205478446F6E65202538
:1009D00064200A00150000205278446F6E650A00FA
:1009E0001400002010B5044604480068204020B1DF
:1009F000024804602046FFF77FFF10BD1404014049
:100A000078B503460022E5E0012696400D6805EA28
:100A10000604002C7DD04D68012D08D04D68022DB4
:100A200005D04D68112D02D04D68122D13D1986854
:100A300056000325B540A8435600CD68B54028436D
:100A40009860586801259540A8430D79C5F30015B5
:100A50009540284358600D7905F00305032D09D111
:100A6000D86A01259540A8430D79C5F3C005954086
:100A70002843D862D86856000325B540A8435600DD
:100A80008D68B5402843D8604D68022D02D04D686E
:100A9000122D13D1D60803F1200555F8260055076D
:100AA000EE0E0F25B540A8435607F60E0D69B5406A
:100AB0002843D60803F1200545F82600186856009B
:100AC0000325B540A8430D7905F003055600B54050
:100AD000284318604D6805F08055B5F1805F78D1E6
:100AE00000BF3F4D2D6E45F001053D4E3566354644
:100AF0002D6E05F00105009500BF00BF4FEAB63529
:100B0000960855F8260095072E0F0F25B540A843E7
:100B100000E05EE0B3F1904F01D100251EE0314DC1
:100B2000AB4201D1012519E02F4DAB4201D1022585
:100B300014E02E4DAB4201D103250FE02C4DAB420A
:100B400001D104250AE02B4DAB4201D1052505E07A
:100B5000294DAB4201D1062500E007259607360F47
:100B6000B5402843254D960845F82600244D2868B1
:100B7000A0434D6805F48035B5F5803F00D1204392
:100B80001F4D28602D1D2868A0434D6805F40035D1
:100B9000B5F5003F00D12043194D2D1D28602D1DB6
:100BA0002868A0434D6805F48015B5F5801F00D175
:100BB0002043134D083528602D1D2868A0434D683B
:100BC00005F40015B5F5001F00D120430C4D0C3580
:100BD0002860521C0D68D540002D7FF415AF78BDFC
:100BE000001002400004004800080048000C0048C3
:100BF0000010004800140048001800480800014098
:100C000000040140024613690B400BB1012000E0D3
:100C10000020704710B5426921EA020302EA01048C
:100C200043EA0443836110BD0AB1816100E081623F
:100C30007047000001480068704700002C00002049
:100C4000034800680349097808440149086070476F
:100C50002C0000203400002010B50024032000F0F8
:100C60004FFA002000F008F808B1012401E000F07C
:100C7000D1F9204610BD000070B50446002511488A
:100C80000078D8B10F4800784FF47A71B1FBF0F0DA
:100C90000D490968B1FBF0F6304601F0FCFC58B98B
:100CA000102C07D200222146501E00F0E7F9074819
:100CB000046004E0012502E0012500E0012528464A
:100CC00070BD0000340000203800002030000020FB
:100CD00010B510214FF09040FFF79CFF11480078AD
:100CE000401C10490870084600780A2819DD0120C8
:100CF0000D490870FFF79EFF0C49086008460CA1DB
:100D000002680D4803F0B8FB0B48FFF7B1FA0B4936
:100D1000087008460178084801F0B0FE002001493B
:100D2000087010BD270000200000002018000020DF
:100D300025386441410000001D0000201C000020F7
:100D4000704770477047704770477047014691F889
:100D50003600704710B504462068006800F00100B6
:100D600050B12068806800F0010028B1012021689E
:100D700048602046FFF7E6FF20680068C0F34000A7
:100D800050B120688068C0F3400028B1022021687B
:100D900048602046FFF7D4FF20680068C0F3800059
:100DA00050B120688068C0F3800028B10420216819
:100DB0004860204600F02CF920680068C0F3C000AD
:100DC00050B120688068C0F3C00028B108202168B5
:100DD00048602046FFF7B7FF20680068C0F30010A6
:100DE00050B120688068C0F3001028B1102021683D
:100DF00048602046FFF7A5FF20680068C0F3401058
:100E000050B120688068C0F3401028B120202168CC
:100E100048602046FFF799FF20680068C0F3801003
:100E200050B120688068C0F3801028B1402021684C
:100E300048602046FFF788FF10BD000070B50446EB
:100E40000CB9012070BD6068012800D100BF4FF6C9
:100E5000FF716069884200D000BF606800B900BFC0
:100E600094F8360028B9002084F83500204600F0B8
:100E70004DF8022084F836002068C56860680128B3
:100E800001D125F006054FF6FF716069884201D057
:100E900025F46045606808B925F0D8051948054073
:100EA000D4E901010843216A0843616A0843A16A41
:100EB00008430543606818B9E169206908430543A0
:100EC0006068012801D1E06805434FF6FF71606951
:100ED000884203D0D4E90510084305432068C56063
:100EE00009492068884205D1D4E90B0108432168EB
:100EF000086202E02168E06A0862012084F8360096
:100F000000209FE7F8F119FF007C004038B5044647
:100F10000D492068884215D100BF0C48806D40F013
:100F200000400A4988650846806D00F00040009046
:100F300000BF00BF00220121412000F09FF84120A6
:100F400000F088F838BD0000007C0040001002402E
:100F500070B504460E461546022084F836002A492C
:100F60002068884206D12948006840F001002749DE
:100F7000086005E02548006840F002002349086049
:100F80002068C06840F400202168C86020680069BB
:100F900040F0010021680861102021684860206845
:100FA00086611021204601F04DFD032800D170BD5F
:100FB000082021684860206845610821204601F02A
:100FC00041FD032800D1F2E7204601F073FC2046E2
:100FD000FFF7BCFE032800D1E9E72068806840F0F5
:100FE0000100216888602068006940F001002168E4
:100FF00008612068006940F0040021680861012050
:1010000084F836000020D2E7007C00402004014034
:101010007047000008B500BF0D48006E40F00100A9
:101020000B4908660846006E00F00100009000BF02
:1010300000BF00BF0846806D40F0805088650846BC
:10104000806D00F08050009000BF00BF08BD000020
:10105000001002400146084600280DDB00BF00BF1B
:1010600000F01F0301229A4043099B0003F1E02393
:10107000C3F8002100BF00BF00BF70472DE9F05F3B
:1010800080460D461646002703F022FA07463946E9
:101090002A46334601F00700C0F1070ABAF1040FEF
:1010A00002D94FF0040A01E0C0F1070AD14600F16D
:1010B000040ABAF1070F02D24FF0000A01E0A0F1D2
:1010C000030AD4464FF0010A0AFA09FAAAF1010A02
:1010D0000AEA020A0AFA0CFA4FF0010B0BFA0CFBAF
:1010E000ABF1010B0BEA030B4AEA0B042146404625
:1010F00003F0F6F900F000B830BCBDE8C09F000076
:1011000000BF00F00702064B19684FF6FF031940B5
:10111000044B0B4343EA0221014B196000BF7047A7
:101120000CED00E00000FA050246B2F5007F2AD17E
:101130001D48006800F4C060B0F5007F32D01A4846
:10114000006820F4C06040F40070174B1860174826
:10115000006832235843164BB0FBF3F0411C00E00B
:10116000491E1148406900F48060B0F5806F01D1DC
:101170000029F5D10C48406900F48060B0F5806F1B
:1011800010D1032070470848006800F4C060B0F533
:10119000806F07D00448006820F4C06040F480608D
:1011A000014B18600020EDE700700040380000207F
:1011B00040420F000248006800F4C0607047000021
:1011C000007000402DE9F84304460025A846208819
:1011D00000F40060B0F5006F30D1606E80B1B0F502
:1011E000800F13D0B0F5000F03D0B0F5400F15D12C
:1011F00013E0FB48C06840F48030F949C8600FE054
:101200000021201D01F05EFD054609E0002104F1EA
:10121000200001F01DFE054602E001E0012500BFAF
:1012200000BF55B9EE488830006820F44000616E78
:101230000843EB49C1F8880000E0A846208800F484
:101240008050B0F5805F30D1A06E80B1B0F1807F6A
:1012500013D0B0F1007F03D0B0F1407F15D113E07F
:10126000DF48C06840F48030DD49C8600FE00021ED
:10127000201D01F027FD054609E0002104F12000B2
:1012800001F0E6FD054602E001E0012500BF00BFD8
:1012900055B9D3488830006820F04070A16E0843EB
:1012A000CF49C1F8880000E0A846206800F400306B
:1012B000B0F5003F77D14FF00009C948806D01219A
:1012C00021EA107078B100BFC548806D40F08050B1
:1012D000C34988650846806D00F08050009000BFCB
:1012E00000BF4FF00109BF48006840F48070BD495D
:1012F0000860FFF79FFC074606E0FFF79BFCC01B5A
:10130000022801D9032505E0B648006800F4807082
:101310000028F2D000BF85BBB1489030006800F4CF
:101320004076D6B1D4F88400B04216D0AC489030A4
:10133000006820F44076AA48D0F8900040F480304D
:10134000A749C1F890000846D0F8900020F48030FA
:10135000C1F890000846C0F8906006F00100A8B1FE
:10136000FFF768FC074609E0FFF764FCC01B41F289
:101370008831884202D9032507E017E09848903069
:10138000006800F002000028EED000BF65B9944864
:101390009030006820F44070D4F8841008439049DD
:1013A000C1F8900003E00CE0A84600E0A846B9F1BF
:1013B000010F05D18A48806D20F0805088498865EA
:1013C00000BF207800F0010048B1854888300068EF
:1013D00020F00300A16B08438149C1F88800207800
:1013E00000F00200022809D17D488830006820F012
:1013F0000C00E16B08437A49C1F88800207800F0BE
:101400000400042809D176488830006820F03000B4
:10141000216C08437249C1F88800207800F0080068
:10142000082809D16E488830006820F0C000616C3F
:1014300008436B49C1F88800207800F0100010289C
:1014400009D167488830006820F44070A16C0843D7
:101450006349C1F88800207800F02000202809D1D5
:101460005F488830006820F44060E16C08435C49C4
:10147000C1F88800208800F40070B0F5007F09D121
:1014800057488830006820F44020E16D08435449F3
:10149000C1F88800208800F48060B0F5806F09D121
:1014A0004F488830006820F44010216E08434C49B2
:1014B000C1F88800207800F04000402809D1484851
:1014C0008830006820F44050216D08434449C1F839
:1014D0008800207800F08000802809D140488830BA
:1014E000006820F44040616D08433D49C1F8880020
:1014F000208800F48070B0F5807F09D138488830AA
:10150000006820F44030A16D08433549C1F88800D7
:10151000208800F40050B0F5005F1FD130488830BB
:10152000006820F04060E16E08432D498831086072
:10153000E06EB0F1006F06D12948C06840F4801019
:101540002749C8600AE0E06EB0F1806F06D1012142
:10155000201D01F0B7FB054605B1A846206800F440
:101560000020B0F5002F1FD11D488830006820F002
:101570004060216F08431A4988310860206FB0F13C
:10158000006F06D11648C06840F480101449C86046
:101590000AE0206FB0F1806F06D10121201D01F01B
:1015A00091FB054605B1A846206800F48020B0F5FF
:1015B000802F24D10A488830006820F04060616F95
:1015C0000843074988310860606FB0F1006F0BD1A4
:1015D0000348C06840F480100149C8600FE0000073
:1015E0000010024000700040606FB0F1806F06D1C3
:1015F0000121201D01F066FB054605B1A8462088A3
:1016000000F48040B0F5804F1FD12248006820F0E0
:101610004050A16F08431F490860A06FB0F1805F80
:1016200007D10221201D01F04DFB05466DB1A846F2
:101630000BE0A06FB0F1005F07D1022104F12000A0
:1016400001F006FC054605B1A846208800F40040DC
:10165000B0F5004F09D10F48006820F08040E16FDD
:1016600008430C498839C1F88800206800F48030AC
:10167000B0F5803F0AD10748006820F00040D4F858
:101680008010084303498839C1F888004046BDE806
:10169000F8830000881002402DE9F04104460D4611
:1016A00014B90120BDE8F0815548006800F007003A
:1016B000A8420ED25248006820F007002843504943
:1016C00008600846006800F00700A84201D0012029
:1016D000E8E7207800F00100002840D06068032887
:1016E00006D14848006800F00070D8B90120D9E759
:1016F0006068022806D14348006800F4003088B9C9
:101700000120CFE7606830B93E48006800F0020071
:1017100040B90120C6E73B48006800F4806008B982
:101720000120BFE73748806820F003006168084364
:1017300034498860FFF77EFA064608E0FFF77AFA38
:10174000801B41F28831884201D90320AAE72D4845
:10175000806800F00C006168B0EB810FEED120785A
:1017600000F00200022807D12648806820F0F0002F
:10177000A1680843234988602148006800F00700F9
:10178000A8420ED91E48006820F0070028431C49D3
:1017900008600846006800F00700A84201D0012058
:1017A00080E7207800F00400042807D115488068FD
:1017B00020F4E060E168084312498860207800F076
:1017C0000800082808D10F48806820F4605021697B
:1017D00040EAC1000B49886000F046F80949896871
:1017E000C1F30311084A515C01F01F01C8400749C9
:1017F000086007480068FFF73FFA0746384651E798
:101800000020024000100240A05D000838000020C7
:1018100030000020014800687047000038000020B8
:1018200000B5FFF7F7FF05498968C1F30221044AB3
:10183000515C01F01F01C84000BD000000100240D3
:10184000B05D000800B5FFF7E5FF05498968C1F301
:10185000C221044A515C01F01F01C84000BD0000D4
:1018600000100240B05D0008F0B500230020DFF852
:10187000D4C0DCF808C00CF00C01DFF8C8C0DCF8FC
:101880000CC00CF0030719B10C291ED1012F1CD17B
:10189000DFF8B0C0DCF800C00CF0080CBCF1000FA1
:1018A00006D1DFF8A0C0DCF894C0CCF3032305E038
:1018B000DFF890C0DCF800C0CCF30313DFF888C079
:1018C0005CF8233041B9184606E0042901D11F48CD
:1018D00002E0082900D11E480C2932D1DFF864C08B
:1018E000DCF80CC00CF00304012C09D0022C02D04F
:1018F000032C04D101E0154A04E0154A02E000BFC0
:101900001A4600BF00BFDFF83CC0DCF80CC0CCF3C7
:10191000021C0CF10106DFF82CC0DCF80CC0CCF383
:10192000062C0CFB02FCBCFBF6F2DFF818C0DCF85E
:101930000CC0CCF3416C0CF1010C4FEA4C05B2FB2E
:10194000F5F0F0BD00100240B85D00080024F4007E
:1019500000127A002DE9F843044614B90120BDE8CD
:10196000F883F948806800F00C06F748C06800F07A
:101970000307207800F01000102877D11EB10C2E3C
:1019800076D1012F74D1F048006800F0020018B140
:10199000A06908B90120E2E7EB48216A006800F07D
:1019A000080020B1E848006800F0F00005E0E648D3
:1019B0009430006800F47060000981421FD9206AE9
:1019C00001F0F8FA08B10120C9E700BFDE4800685D
:1019D00040F00800DC4908600846006820F0F0008C
:1019E000216A0843D849086000BF0846406820F4CF
:1019F0007F40E16940EA0120D34948601FE000BF11
:101A0000D148006840F00800CF49086008460068E7
:101A100020F0F000216A0843CB49086000BF084667
:101A2000406820F47F40E16940EA0120C6494860EF
:101A30002EB9206A01F0BEFA08B101208FE7FFF746
:101A400013FFC1498968C1F30311C04A515C01F019
:101A50001F01C840BE490860BE480068FFF70CF986
:101A60008046B8F1000F4ED0404678E74BE0FFE7E4
:101A7000A06980B3B448006840F00100B249086032
:101A8000FFF7D8F8054606E0FFF7D4F8401B022818
:101A900001D9032063E7AC48006800F00200002889
:101AA000F2D000BFA848006840F00800A6490860CE
:101AB0000846006820F0F000216A0843A249086047
:101AC00000BF0846406820F47F40E16940EA0120F9
:101AD0009D49486017E0FFE79B48006820F001003F
:101AE00099490860FFF7A6F8054606E0FFF7A2F857
:101AF000401B022801D9032031E79348006800F019
:101B000002000028F2D1207800F0010000285CD00B
:101B1000082E03D00C2E0AD1032F08D18A48006862
:101B200000F4003088B3606878BB012017E700BF7D
:101B30006068B0F5803F06D18348006840F480308B
:101B4000814908601AE06068B0F5A02F0BD17E488B
:101B5000006840F480207C4908600846006840F432
:101B6000803008600AE07848006820F480307649C8
:101B700008600846006820F48020086000BF6068A4
:101B800090B1FFF757F8054607E01EE0FFF752F85F
:101B9000401B642801D90320E1E66B48006800F48B
:101BA00000300028F2D010E0FFF744F8054606E0C8
:101BB000FFF740F8401B642801D90320CFE66248B4
:101BC000006800F400300028F2D1207800F0020014
:101BD000022852D1042E03D00C2E14D1022F12D180
:101BE0005948006800F4806018B1E06808B9012025
:101BF000B5E65548406820F0F850217C40EA016085
:101C00005149486039E0E06800B34F48006840F44B
:101C100080704D490860FFF70DF8054606E0FFF7B4
:101C200009F8401B022801D9032098E646480068BD
:101C300000F480600028F2D04348406820F0F8505B
:101C4000217C40EA01604049486016E03E48006857
:101C500020F480703C490860FEF7ECFF054606E082
:101C6000FEF7E8FF401B022801D9032077E636483B
:101C7000006800F480600028F2D1207800F00800AD
:101C8000082836D16069D0B12F489430006840F000
:101C900001002D49C1F89400FEF7CCFF054606E08F
:101CA000FEF7C8FF401B022801D9032057E626484B
:101CB0009430006800F002000028F1D019E02248BA
:101CC0009430006820F001001F49C1F89400FEF72D
:101CD000B1FF054606E0FEF7ADFF401B022801D923
:101CE00003203CE618489430006800F00200002809
:101CF000F1D1207800F00400042872D14FF00009DF
:101D00001148806D00F0805078B900BF0E48806D9A
:101D100040F080500C4988650846806D00F0805086
:101D2000009000BF00BF4FF001090B48006800F4AD
:101D3000807000BB0848006840F480700649086065
:101D4000FEF778FF054610E000100240A05D000895
:101D5000380000203000002000700040FEF76AFFCD
:101D6000401B022801D90320F9E5B548006800F4BA
:101D700080700028F2D000BFA068012808D1B148C7
:101D8000006840F00100AF499039C1F8900021E0AF
:101D9000A06805280FD1AB48006840F00400A949AD
:101DA0009039C1F890000846D0F8900040F001004A
:101DB000C1F890000EE0A348006820F00100A1499E
:101DC0009039C1F890000846D0F8900020F0040047
:101DD000C1F8900000BFA068A0B1FEF72BFF054638
:101DE00009E02EE0FEF726FF401B41F288318842D1
:101DF00001D90320B3E59348006800F002000028F1
:101E0000F0D012E0FEF716FF054608E0FEF712FFDD
:101E1000401B41F28831884201D903209FE589485F
:101E2000006800F002000028F0D1B9F1010F07D1DD
:101E300084489038806D20F08050824990398865C0
:101E400000BFA06A00287DD0A06A02287BD17D480F
:101E50009038C76807F00301E06A814228D107F093
:101E60007001206B401EB1EB001F21D107F4FE4131
:101E7000606BB1EB002F1BD107F40031A06B07287A
:101E800001D0012000E00020814211D107F4C001FF
:101E9000A08F0122C2EB5000B1EB405F08D107F0E8
:101EA000C0614020005DC2EB5000B1EB406F6CD0D0
:101EB0000C2E68D063489038006800F0806028B924
:101EC00060489038006800F0805008B1012046E575
:101ED0005C489038006820F080705A49903908605A
:101EE000FEF7A8FE054606E0FEF7A4FE401B02280A
:101EF00001D9032033E553489038006800F00070A2
:101F00000028F1D1D4E90B10401E41EA0011606BAA
:101F100041EA0021A08F0122C2EB500041EA40516A
:101F20004020005DC2EB500041EA4061A06B000917
:101F300041EA404043499039C968434A1140084347
:101F4000404901E066E046E09039C8600846006814
:101F500040F0807008600846C06840F08070C8603B
:101F6000FEF768FE054606E0FEF764FE401B022809
:101F700001D90320F3E433489038006800F0007082
:101F80000028F1D05AE00120E9E42E48903800689A
:101F900000F00070F0BB2B489038006840F0807073
:101FA0002849903908600846C06840F08070C860D1
:101FB000FEF740FE054606E0FEF73CFE401B022809
:101FC00001D90320CBE41F489038006800F000706E
:101FD0000028F1D032E00C2E2ED01A48903800683C
:101FE00020F080701749903908600846006800F0BA
:101FF000205020B90846C06820F00300C86011488E
:102000009038C068114908400E499039C860FEF701
:1020100011FE00E012E0054606E0FEF70BFE401B55
:10202000022801D903209AE406489038006800F09D
:1020300000700028F1D101E0012090E400208EE43E
:1020400000700040901002408C809DF9FFFFEEFE72
:1020500008B50146002209E0501CC2B20868C068F9
:10206000009000BF042A01D1032008BD08688068E1
:1020700000F4C0600028EFD100BFF6E770B5044659
:102080000CB9012070BD606A38B96068B0F5827F14
:1020900000D105E00021E16102E0002121616161E0
:1020A0000021A16294F85D0028B9002084F85C004A
:1020B000204600F05BF8022084F85D00206800688C
:1020C00020F0400021680860E068B0F5E06F01D9B9
:1020D000002501E04FF48055E068B0F5706F05D041
:1020E000E068B0F5E06F01D00021A162A08800F4A3
:1020F0008270218901F404410843217C01F002012E
:102100000843217D01F001010843218B01F4007196
:102110000843217F01F0380108432021095D01F0C7
:1021200080010843218D01F40051084321680860B3
:102130000421A06901EA104094F8241001F0100174
:10214000084394F8341001F008010843A18901F410
:102150007061084305F480510843216848600020FD
:102160002066012084F85D0000208BE710B586B062
:102170000446142101A8FEF770F818492068884227
:1021800029D100BF1648006E40F4805014490866FB
:102190000846006E00F48050009000BF00BF00BFF2
:1021A0000846C06C40F00100C8640846C06C00F0EE
:1021B0000100009000BF00BFE020019002200290CB
:1021C00000200390032004900520059001A94FF002
:1021D0009040FEF715FC06B010BD00000030014035
:1021E000001002402DE9F84F0446884616461D4669
:1021F0004FF0000A00BF94F85C00012802D10220D1
:1022000000F0E5B8012084F85C0000BFFEF712FD85
:102210000746B14694F85D00012802D04FF0020A4B
:10222000CBE0B8F1000F00D016B94FF0010AC4E0BE
:10223000032084F85D0000202066C4F83880A6875B
:10224000E6872064A4F84400A4F846002065E06412
:10225000A068B0F5004F0BD12068006820F0400066
:10226000216808602068006840F4804021680860A8
:102270002068006800F04000402805D02068006811
:1022800040F0400021680860E068B0F5E06F2FD9A9
:10229000606810B1B9F1010F09D1A06B0088216805
:1022A000C860A06B801CA063E08F401EE0871BE02D
:1022B0002068806800F0020002280AD1A06B008824
:1022C0002168C860A06B801CA063E08F401EE0877F
:1022D0000AE0FEF7AFFCC01BA84201D3681C00B99E
:1022E00015B94FF0030A68E0E08F0028E0D14AE01A
:1022F000606810B1B9F1010F17D1E08F01280AD938
:10230000A06B00882168C860A06B801CA063E08F70
:10231000801EE08709E0A06B007821680873A06B3D
:10232000401CA063E08F401EE08729E020688068A1
:1023300000F00200022818D1E08F01280AD9A06B12
:1023400000882168C860A06B801CA063E08F801E9D
:10235000E08715E0A06B007821680873A06B401C33
:10236000A063E08F401EE0870AE0FEF763FCC01B1D
:10237000A84201D3681C00B915B94FF0030A1CE04C
:10238000E08F0028D2D13A462946204600F0A8FE28
:1023900008B120202066A06850B900BF002000903E
:1023A0002068C068009020688068009000BF00BF6F
:1023B000206E08B14FF0010A00BF012084F85D00D3
:1023C00000BF002084F85C0000BF504618E718BC2E
:1023D000BDE8E08F2DE9FF5F0446894692461D4621
:1023E0000E9E012001900020009000BF94F85C0038
:1023F000012803D1022004B000F04AB9012084F87A
:102400005C0000BFFEF716FC074694F85D000290E2
:1024100060680390A846AB46029801280BD0039849
:10242000B0F5827F04D1A06810B90298042802D0C8
:102430000220009022E1B9F1000F03D0BAF1000FA1
:1024400000D015B90120009018E194F85D0004282F
:1024500002D0052084F85D0000202066C4F840A06A
:10246000A4F84650A4F84450C4F83890E587A587EE
:10247000E0642065E068B0F5E06F02D8BBF1010FC1
:1024800006D92068406820F480502168486005E043
:102490002068406840F480502168486020680068E7
:1024A00000F04000402805D02068006840F040005F
:1024B00021680860E068B0F5E06F4ED9606810B13F
:1024C000B8F1010F09D1A06B00882168C860A06B2A
:1024D000801CA063E08F401EE08736E020688068A3
:1024E00000F00200022810D1E08F70B1019801289D
:1024F0000BD1A06B00882168C860A06B801CA06312
:10250000E08F401EE087002001902068806800F086
:10251000010080B1B4F8460068B12068C068216C41
:102520000880206C801C2064B4F84600401EA4F88B
:10253000460001200190FEF77DFBC01BB04204D392
:10254000701C10B10320009098E0E08F0028C5D1E6
:10255000B4F846000028C1D185E0606810B1B8F138
:10256000010F17D1E08F01280AD9A06B00882168DC
:10257000C860A06B801CA063E08F801EE08709E02C
:10258000A06B007821680873A06B401CA063E08FEB
:10259000401EE08760E02068806800F002000228AA
:1025A0001ED1E08FE0B10198012819D1E08F0128F8
:1025B0000AD9A06B00882168C860A06B801CA0634A
:1025C000E08F801EE08709E0A06B00782168087327
:1025D000A06B401CA063E08F401EE08700200190AC
:1025E0002068806800F0010058B3B4F8460040B39A
:1025F000B4F84600012816D92068C068216C08800C
:10260000206C801C2064B4F84600801EA4F84600AC
:10261000B4F84600012812D82068406840F4805081
:10262000216848600BE02068007B216C0870206CFA
:10263000401C2064B4F84600401EA4F84600012067
:102640000190FEF7F7FAC01BB04201D3701C00B92D
:1026500016B90320009011E0E08F00289BD1B4F858
:102660004600002897D13A463146204600F038FD12
:1026700018B1012000902020206600BF012084F8BE
:102680005D0000BF002084F85C0000BF0098B2E647
:1026900030BCBDE8C09F70B504462546681EB0F149
:1026A000807F01D301200FE0681E4FF0E0214861D8
:1026B0000F214FF0FF3001F013FF00204FF0E02119
:1026C000886107200861002070BD01464B6F8A6F4A
:1026D00043EA0200704710B504460CB9012010BD52
:1026E000A06900B100E000BF606F28B9002084F845
:1026F0007000204600F02AF82420606720680068F7
:1027000020F0010021680860204601F089FC0128C2
:1027100000D1E4E7606A10B1204601F0CDFB2068EB
:10272000406820F49040216848602068806820F06C
:102730002A00216888602068006840F00100216854
:102740000860204601F034FCC9E7000010B586B0EF
:102750000446142101A8FDF780FD1849206888422D
:1027600029D100BF1648806D40F4003014498865B7
:102770000846806D00F40030009000BF00BF00BF2D
:102780000846C06C40F00100C8640846C06C00F008
:102790000100009000BF00BF0C20019002200290B9
:1027A00000200390032004900720059001A94FF01A
:1027B0009040FEF725F906B010BD0000004400402F
:1027C000001002402DE9F84F04460E461746994680
:1027D000606F20285DD106B117B9012000F05BB809
:1027E00000BF94F87000012801D10220F6E7012013
:1027F00084F8700000BF0020E06721206067FEF7CA
:1028000019FA8246A4F85070A4F85270A068B0F586
:10281000805F04D1206910B90025B04602E035463A
:102820004FF0000800BF002084F8700000BF1DE0DA
:102830005346002280212046CDF8009001F0AFFDE4
:1028400008B10320CAE745B9B8F80000C0F3080092
:102850002168088508F1020803E0287821680885C6
:102860006D1CB4F85200401EA4F85200B4F8520097
:102870000028DDD15346002240212046CDF80090AB
:1028800001F08DFD08B10320A8E72020606700203B
:10289000A4E70220A2E718BCBDE8E08F00BFFEE776
:1028A00010B50348FEF756FAFEF712FA10BD000005
:1028B000001100202DE9F0470446002772B65F4959
:1028C0002068084418B1B0F5C05F0AD104E05C4844
:1028D000006800F4402705E05948006800F44017FC
:1028E00000E000BF00BF2068D0F808802068D0F862
:1028F0000C9020684569206886692068D0F820A07F
:102900004E492068084418B1B0F5C05F1CD10DE0F5
:102910004B488838806B40F00040494988398863CB
:102920000846806B20F0004088630EE044488838F9
:10293000C06B40F0200042498839C8630846C06B2C
:1029400020F02000C86300E000BF00BF0DB9002EDA
:1029500061D03A492068084418B1B0F5C05F12D17F
:1029600008E03748006820F4402035498839C1F82C
:10297000880009E03248006820F440103049883966
:10298000C1F8880000E000BF00BF95B12068006971
:1029900040F0010021680861206845610821204657
:1029A00000F050F8032801D184F83600082021688F
:1029B000486096B12068006940F001002168086114
:1029C000206886611021204600F03CF8032801D1E0
:1029D00084F83600102021684860184920680844AF
:1029E00018B1B0F5C05F14D109E01548006820F4B3
:1029F0004020384312498839C1F888000AE010485D
:102A0000006820F4401038430D498839C1F8880027
:102A100000E000BF00BF2068006920F001002168CD
:102A200008612068C0F808802068C0F80C90206811
:102A3000C0F820A062B6BDE8F08700000084FFBFA8
:102A40008810024030B5034600200B4C2468142542
:102A5000B4FBF5F44FF47A75B4FBF5F404FB05F21E
:102A600000BF521E02B903201C6824680C408C422F
:102A700001D0002AF5D130BD3800002038B5054618
:102A80000C46204600F018F800210D2001F06AF9EC
:102A900000231A4606480188008800F08FFF054889
:102AA0000068009021462846009A00F06FFF38BD6C
:102AB00040000020B05E000810B504460248847251
:102AC00000F0FAFF10BD00003012002008B500230E
:102AD0001A4606480188008800F070FF0448006824
:102AE0000090009801F0DEF808BD00003E000020D4
:102AF000B45E000800B587B0142102A8FDF7ADFB55
:102B000000BF3548C06C40F004003349C864084633
:102B1000C06C00F00400019000BF00BF00BF084679
:102B2000C06C40F00100C8640846C06C00F00100B1
:102B3000019000BF00BF00BF0846C06C40F002001B
:102B4000C8640846C06C00F00200019000BF00BFDE
:102B5000002240F211114FF09040FEF765F84FF45B
:102B6000005002901D4803900020049002A91C48C8
:102B7000FDF746FF40F21110029001200390002063
:102B80000490059002A94FF09040FDF739FF08200E
:102B9000029000200390049002A91248FDF730FF34
:102BA00010200290104803900020049002A90D48C4
:102BB000FDF726FF002203210A20FEF75FFA0A2014
:102BC000FEF748FA002202212820FEF757FA2820B3
:102BD000FEF740FA07B000BD0010024000002110CF
:102BE00000080048000400480000111010B50C480F
:102BF0000C490860002048604FF46061094881601A
:102C00004FF6FF7141610021016241628162C16240
:102C10000163FEF713F908B1FDF757FE10BD000080
:102C2000007C00400011002010B5114811490860D7
:102C30004FF48270486000210E4881604FF4E061DB
:102C4000C1600021016141614FF40071816118216F
:102C5000C16100210162416281620721C1620021DC
:102C600001634163FFF70AFA08B1FDF72EFE10BDBC
:102C7000003001403811002010B50D480D490860A2
:102C80004FF4E130486000210A488160C160016171
:102C90000C21416100218161C1610162002005496F
:102CA00048620846FFF717FD08B1FDF70EFE10BD9C
:102CB000004400409C11002000BFFEE700BFFEE77B
:102CC000704700002DE9F04104460F4600255C489E
:102CD000C06800F0030090B15948C06800F00300DC
:102CE0002168884209D1206838B15548C068C0F3CE
:102CF0000210401C6168884233D0012531E0206811
:102D0000012804D0022809D003281AD10DE04C482C
:102D1000006800F0020000B9012514E0484800688E
:102D200000F4806000B901250DE04548006800F41A
:102D3000003028B94248006800F4802000B901251D
:102D400001E0012500BF00BF5DB9D4E90010401EBD
:102D500041EA00103A49C96821F073010843384933
:102D6000C860002D68D13648006820F08060344982
:102D70000860FDF75FFF064606E0FDF75BFF801B7E
:102D8000022801D9032505E02D48006800F0006005
:102D90000028F2D100BFCDBB6FB9A0680002E16886
:102DA000090940EA414026490969264A1140084379
:102DB0002349086120E0012F0FD1A0680002218A79
:102DC0000122C2EB510140EA41501D4909691E4AE6
:102DD000114008431A4908610EE0A0680002217DF5
:102DE0000122C2EB510140EA416015490969174AC5
:102DF00011400843124908611148006840F08060A2
:102E00000F490860FDF716FF064607E014E0FDF7DE
:102E100011FF801B022801D9032505E0084800683E
:102E200000F000600028F2D000BF2DB9044800690E
:102E3000A1690843024908612846BDE8F081000005
:102E400000100240FF80FDFFFF809FFFFF80FFF921
:102E50002DE9F04104460F4600255348C06800F0B4
:102E6000030090B15048C06800F003002168884218
:102E700009D1206838B14C48C068C0F30210401C2A
:102E80006168884233D0012531E02068012804D0F0
:102E9000022809D003281AD10DE04348006800F049
:102EA000020000B9012514E03F48006800F480608A
:102EB00000B901250DE03C48006800F4003028B955
:102EC0003948006800F4802000B9012501E001259F
:102ED00000BF00BF5DB9D4E90010401E41EA0010F8
:102EE0003149C96821F0730108432F49C860002D9A
:102EF00056D12D48006820F080502B490860FDF71E
:102F000099FE064606E0FDF795FE801B022801D9D2
:102F1000032505E02448006800F000500028F2D1A5
:102F200000BF75BB6FB9A0680002E168090940EAFB
:102F300041401D4949691D4A114008431A494861E9
:102F40000EE0A0680002217C0122C2EB510140EAA0
:102F5000416015494969164A1140084312494861C0
:102F60001148006840F080500F490860FDF762FE8C
:102F7000064607E0FDF75EFE801B022802D9032506
:102F800006E00DE00848006800F000500028F1D08D
:102F900000BF2DB90448406961690843024948618E
:102FA0002846BDE8F081000000100240FF80FDFFD0
:102FB000FF80FFF9F8B5044600262348806D00F035
:102FC000805018B1FEF7F6F8054616E000BF1E481F
:102FD000806D40F080501C4988650846806D00F087
:102FE0008050009000BF00BFFEF7E4F80546164889
:102FF000806D20F0805014498865B5F5007F07D1B9
:10300000802C10D9A02C01D902260CE001260AE060
:10301000802C01D9032606E0802C01D1022602E093
:10302000702C00D101260948006820F007003043C9
:10303000064908600846006800F00700B04201D069
:103040000120F8BD0020FCE70010024000200240F3
:1030500010B500F011FC012000F0D6FD4FF4FA701D
:10306000FDF736FC002000F043FE0949087800F027
:10307000ABFD074800F0C8FC064800F01DFD0648FF
:1030800000F0CAFD0021084600F08BFC10BD0000D6
:10309000481200203012002080D2999001200D4962
:1030A0000870A0210B4801710A214171072181712B
:1030B000012009490870122107480172002141725C
:1030C00006480178044881722021C17240210173B1
:1030D0007047000048120020301200203C00002001
:1030E000F8B504460E461546334600224FF4C0514B
:1030F0002046009500F026F828B1206E40F0200010
:1031000020660320F8BD334600228021204600952A
:1031100000F08EF828B1206E40F0200020660320D9
:10312000F0E7334600224FF4C0612046009500F0DE
:1031300009F828B1206E40F0200020660320E1E766
:103140000020DFE72DE9F84F04460D461646984665
:10315000DDF82890FDF76EFDA0EB0900A8EB000755
:10316000FDF768FD82462F480068C0EBC00000EB09
:103170008000000D784300904CE0B5F5C06F02D19F
:103180000EB92068007B08F10100002842D0FDF74D
:1031900051FDA0EB0A00B84200D2A7BB20684068EE
:1031A00020F0E000216848606068B0F5827F0DD1B2
:1031B000A068B0F5004F03D0A068B0F5806F05D1CE
:1031C0002068006820F0400021680860A06AB0F51F
:1031D000005F0DD100BF2068006820F40050216816
:1031E00008602068006840F400502168086000BF53
:1031F000012084F85D0000BF002084F85C0000BF5F
:10320000032000F011B8FFE7009800B900270098EC
:10321000401E0090206880682840B042ADD1002058
:10322000EFE700003800002018BCBDE8E08F000088
:103230002DE9F84F04460D4690461E46DDF82890CD
:10324000FDF7F8FCA0EB0900371AFDF7F3FC824606
:103250002C480068C0F3CB307843009045E0701CE8
:10326000002842D0FDF7E6FCA0EB0A00B84200D2ED
:10327000A7BB2068406820F0E000216848606068D3
:10328000B0F5827F0DD1A068B0F5004F03D0A068E3
:10329000B0F5806F05D12068006820F040002168FB
:1032A0000860A06AB0F5005F0DD100BF206800681B
:1032B00020F40050216808602068006840F4005045
:1032C0002168086000BF012084F85D0000BF002075
:1032D00084F85C0000BF032000F016B8FFE70098F8
:1032E00000B900270098401E0090206880682840A0
:1032F000A84201D1012000E000204045AFD10020CC
:10330000EAE700003800002018BCBDE8E08F7047F5
:1033100038B50446200A8DF80000E0B28DF80100AF
:1033200002226946972000F007FB38BD10B54FF424
:10333000AA7000F05BFA044640F2531000F056FA0F
:1033400044EA002010BD08B502226946152000F0AD
:1033500015FA9DF801009DF8001040EA012008BD13
:103360001CB50446052269461D2000F007FA00F04E
:103370007BF920702078032873D005DC48B1012840
:103380005AD0022857D158E004286BD00F28F9D121
:1033900062E19DF80010484200EBD071491049B23B
:1033A00061709DF80110484200EBD07149104AB29B
:1033B000A2709DF802008009E17860F30001E170DD
:1033C0009DF802004009E17860F34101E1709DF849
:1033D00002000009E17860F38201E1709DF80200CB
:1033E000C008E17860F3C301E1709DF80200800835
:1033F000E17860F30411E1709DF802004008E17883
:1034000060F34511E1709DF80200E17860F38611E8
:10341000E1709DF803004009217960F300012171FA
:103420009DF80300217960F3410121719DF80400AA
:1034300000F00700607115E100BF9DF800104842E0
:1034400000EBD071491049B261709DF80120802ACB
:1034500009DA9DF80110CA1701EB92729210A2705E
:103460000BE04DE0ADE09DF80120A2F58070C217A1
:1034700000EB9272921053B2A3709DF80200800983
:10348000E17860F30001E1709DF802004009E17805
:1034900060F34101E1709DF802000009E17860F3FA
:1034A0008201E1709DF80200C008E17860F3C30179
:1034B000E1709DF802008008E17860F30411E1708A
:1034C0009DF802004008E17860F34511E1709DF835
:1034D0000200E17860F38611E1709DF80300400975
:1034E000217960F3000121719DF80300217960F3D7
:1034F000410121719DF8040000F007006071B1E006
:103500009DF80010484200EBD071491049B261703B
:103510009DF80110484200EBD07149104AB2A270E8
:103520009DF802008109E07861F30000E0709DF8E9
:1035300002004109E07861F34100E0709DF802006B
:103540000009E17860F38201E1709DF80200C00893
:10355000E17860F3C301E1709DF802008008E17832
:1035600060F30411E1709DF802004008E17860F317
:103570004511E1709DF80200E17860F38611E17079
:103580009DF803008109207961F3010020719DF805
:1035900003004009217960F3820121719DF8030045
:1035A0000009217960F3C30121719DF8030021799D
:1035B00060F3041121719DF8040000F007006071B0
:1035C00050E09DF80010484200EBD071491049B21C
:1035D00061709DF80110484200EBD07149104AB269
:1035E000A2709DF802008009E17860F30001E170AB
:1035F0009DF802004009E17860F34101E1709DF817
:1036000002000009E17860F38201E1709DF8020098
:10361000C008E17860F3C301E1709DF80200800802
:10362000E17860F30411E1709DF802004008E17850
:1036300060F34511E1709DF80200E17860F38611B6
:10364000E1709DF8030000F0010020719DF8040076
:1036500000F00700607105E000202060A0800F20CE
:10366000207000BF00BF1CBD0148007870470000FB
:10367000DD000020F8B505460C4616466946204692
:1036800000F018F82078B04201DD0120F8BD227862
:1036900029469DF8000000F037F80020F6E708B54D
:1036A00000200090012269461F2000F067F89DF875
:1036B000000008BD38B504460D46022269461720B1
:1036C00000F05CF8FFF7D0FF01280DD140F60310A1
:1036D00000F08CF80121B1EBE01F05D140F601109C
:1036E00000F084F820700BE0FFF7BEFF042804D13F
:1036F0009DF80000801C207002E09DF80000207002
:103700009DF80100287038BD2DE9F04105460E46B0
:103710001446E71C1B201749087008464570002016
:10372000887000BF05E00022C11C124B5A54411C96
:1037300088B2A042F7DB00F0B7F800224FF48071A6
:103740004FF09040FDF770FA3A460B49094800F0F7
:1037500027FB22460849C91C3046FCF765FD0122BB
:1037600011024FF09040FDF75FFA00F09DF8BDE8C0
:10377000F081000055120020541300202DE9F04183
:1037800005460E461446A01C87B216480570002058
:103790001449487000BF05E00022811C114B5A54A7
:1037A000411C88B2A042F7DB00F07EF800224FF403
:1037B00080714FF09040FDF737FA3A460A490948C0
:1037C00000F0EEFA22460849891C3046FCF72CFD31
:1037D000012211024FF09040FDF726FA00F064F844
:1037E000BDE8F081551200205413002038B504467E
:1037F00001226946204600F003F89DF8000038BD1C
:103800002DE9F04104460E461546281D87B21920C1
:1038100017490870200A48708C700020C87000BFDB
:1038200005E00022011D124B5A54411C88B2A842E7
:10383000F7DB00F039F800224FF480714FF0904030
:10384000FDF7F2F93A460B49094800F0A9FA2A4671
:103850000849091D3046FCF7E7FC012211024FF030
:103860009040FDF7E1F900F01FF8BDE8F08100009D
:10387000551200205413002010B51420FDF728F82D
:10388000002201214FF09040FDF7CEF93220FDF7E4
:103890001FF8012211464FF09040FDF7C5F91420A2
:1038A000FDF716F810BD000010B5002210214FF0F2
:1038B0009040FDF7B9F905E0012210214FF090404A
:1038C000FDF7B2F908210648FDF79CF90128F3D06D
:1038D000002210214FF09040FDF7A6F910BD000026
:1038E000000400482DE9F04104460E461546AF1C81
:1038F0001A2010490870084644702A463146801C38
:10390000FCF792FCFFF7D0FF00224FF480714FF0DC
:103910009040FDF789F93946064800F033FA012254
:1039200011024FF09040FDF77FF9FFF7BDFFBDE8B2
:10393000F0810000551200202DE9F04105460E46A9
:103940001446601C87B2FFF7AFFF00224FF480716E
:103950004FF09040FDF768F90B480570224631465C
:10396000401CFCF761FC3946074800F00BFA0122C5
:1039700011024FF09040FDF757F9842D01D0FFF769
:1039800093FFBDE8F08100005512002037B50446D2
:103990000D462946204600F025F9029800F0BCF9B2
:1039A0003EBD38B505460C468DF800508DF80140F7
:1039B000022269468F20FFF7BFFF38BD2DE9FC4189
:1039C00007460C4615461E46380A8DF80000F8B228
:1039D0008DF80100200A8DF80200E0B28DF8030096
:1039E000280A8DF80400E8B28DF80500300A8DF839
:1039F0000600F0B28DF80700082269468D20FFF717
:103A00009BFFBDE8FC81000038B5044620782849BA
:103A10000978884202D0207800F0D6F82078032870
:103A200023D005DC48B1012811D0022839D10FE09C
:103A3000042824D00F2834D12BE060788DF80000C2
:103A4000A0788DF80100E0788DF8020029E000BF31
:103A500020798DF8000060798DF80100A0798DF84B
:103A600002006079134908701BE0E0798DF80000CE
:103A7000207A8DF80100607A8DF8020011E0A07ABA
:103A80008DF80000E07A8DF80100207B8DF80200AF
:103A900007E000208DF800008DF801008DF802008D
:103AA00000BF00BF032269468B20FFF745FF38BDEA
:103AB000DD000020DE0000201CB5044620784149CE
:103AC0000978884202D0207800F07EF82078032818
:103AD00037D005DC48B101281DD002286BD11BE08E
:103AE000042844D00F2866D155E060788DF8000096
:103AF000A0788DF80100E0788DF8020020798DF82B
:103B0000030060798DF80400A0798DF80500E07954
:103B10008DF806004FE000BF207A8DF80000607A33
:103B20008DF80100A07A8DF80200E07A8DF803008C
:103B3000207B8DF8040000208DF805008DF806002C
:103B400039E0607B8DF80000A07B8DF80100E07B00
:103B50008DF80200207C8DF80300607C8DF8040055
:103B6000A07C8DF80500E07C8DF8060023E0207D28
:103B70008DF80000607D8DF80100A07D8DF80200B9
:103B8000E07D8DF8030000208DF804008DF805001D
:103B90008DF806000FE000208DF800008DF8010080
:103BA0008DF802008DF803008DF804008DF80500F3
:103BB0008DF8060000BF00BF072269468C20FFF782
:103BC000BBFE1CBDDD00002001B59DF800000449CE
:103BD0000870012269468A20FFF7AEFE08BD00008A
:103BE000DD00002070B504460D462A46214600201F
:103BF000FFF778FE70BD38B504460094012269468F
:103C0000A320FFF799FE38BD01B501226946962031
:103C1000FFF792FE08BD000030B52DED088B81B096
:103C2000054600249FED191B9FED1A0B00F06CFC5C
:103C3000B0EE40BAF0EE60BA53EC1B2B9FED170BC1
:103C400051EC100BFCF73FFC41EC190B2846FCF73C
:103C5000BAFC41EC1A0B53EC192BFCF734FC41EC89
:103C6000180BFCF7BDFC0446200C8DF80000200A60
:103C70008DF80100E0B28DF802000322694686202B
:103C8000FFF75AFE01B0BDEC088B30BD000000000C
:103C90000000324000000000000000400000000072
:103CA000A8CB884101B582B09DF808008DF80400CA
:103CB000BDF80A00000A8DF80500BDF80A00C0B280
:103CC0008DF806004FF6FF70FFF722FBFFF7CCFCE4
:103CD000022802D10020FFF78EFF032201A98220D3
:103CE000FFF72AFE0520014908700EBDDC00002008
:103CF00001B5012269468020FFF71EFE9DF80000F5
:103D000018B901200349087002E002200149087037
:103D100008BD0000DC00002001B582B09DF808005D
:103D20008DF80400BDF80A00000A8DF80500BDF802
:103D30000A00C0B28DF806004FF6FF70FFF7E8FAF0
:103D4000FFF792FC022802D10120FFF754FF032263
:103D500001A98320FFF7F0FD0420014908700EBD82
:103D6000DC00002038B505460C4605F11200C0B253
:103D70008DF800008DF80140022269468E20FFF781
:103D8000DBFD38BD70B504460D464FF0FF332A46C3
:103D900021460248FEF726FA70BD000038110020C7
:103DA000F8B504460D4616460648FEF751F94FF0A1
:103DB000FF3033462A46214600900248FEF70AFBB0
:103DC000F8BD00003811002010B5FCF739FF10BD18
:103DD00000B5B9B0442128A8FCF73FFA142123A864
:103DE000FCF73BFA882101A8FCF737FA102028904D
:103DF00001202E9000202F906020309002203290E1
:103E0000012128A8C1620163282141630721816340
:103E10000221C1630164FDF79DFD08B1FCF755FD6A
:103E20000F20239003202490002025902690279097
:103E3000042123A8FDF730FC08B1FCF746FD40F251
:103E40000220019000201090189001A8FDF7BAF907
:103E500008B1FCF73AFD4FF40070FDF765F908B1C1
:103E6000FCF733FD39B000BD1048006840F4700025
:103E70000E4908600E48006840F001000C490860D7
:103E800000208860084600680A4908400849086020
:103E90008814C8600846006820F48020086000206C
:103EA0008861C803014980390860704788ED00E0E7
:103EB00000100240FFFFF6EA90F8241001F0010123
:103EC00039B10168496821F40031826A11430268FE
:103ED000516090F8241001F00201022907D1016815
:103EE000496821F48031C26A11430268516090F838
:103EF000241001F00401042907D10168496821F464
:103F00008021026B11430268516090F8241001F087
:103F10000801082907D10168496821F40041426B72
:103F200011430268516090F8241001F0100110292B
:103F300007D10168896821F48051826B11430268BE
:103F4000916090F8241001F02001202907D1016828
:103F5000896821F40051C26B11430268916090F8A6
:103F6000241001F04001402913D10168496821F46F
:103F70008011026C114302685160016CB1F5801F21
:103F800007D10168496821F4C001426C11430268FD
:103F9000516090F8241001F08001802907D1016858
:103FA000496821F40021826C114302685160704716
:103FB00038B504460020E067FCF73CFE0546206863
:103FC000006800F0080008280CD16FF07E402B46F6
:103FD00000224FF400110090204600F0E0F908B1F3
:103FE000032038BD2068006800F0040004280CD1CC
:103FF0006FF07E402B4600224FF480010090204657
:1040000000F0CDF908B10320EBE720206067A0673E
:1040100000BF002084F8700000BF00BFE1E700008F
:104020002DE9F84F044600200090D24920688842CC
:1040300000D100E000BF2169A0680843616908431E
:10404000E16940EA010A20680068CB49084040EA7B
:104050000A00216808602068406820F44050E16848
:10406000084321684860D4F818A0C24920688842F3
:1040700002D0206A40EA0A0A2068806820F4306092
:1040800040EA0A002168886000BFBC492068884275
:1040900016D1BB48006800F0030030B1012808D0F9
:1040A000022804D0032808D105E0012507E00225F5
:1040B00005E0042503E0082501E0102500BF8DE0A0
:1040C000B0492068884216D1AD48006800F00C0065
:1040D00030B1042808D0082804D00C2808D105E005
:1040E000002507E0022505E0042503E0082501E09E
:1040F000102500BF72E0A4492068884216D1A0486C
:10410000006800F0300030B1102808D0202804D01A
:10411000302808D105E0002507E0022505E0042548
:1041200003E0082501E0102500BF57E0974920680B
:10413000884216D19248006800F0C00030B1402893
:1041400008D0802804D0C02808D105E0002507E069
:10415000022505E0042503E0082501E0102500BF45
:104160003CE08B492068884219D18548006800F4FA
:10417000407048B1B0F5807F0AD0B0F5007F05D01F
:10418000B0F5407F08D105E0002507E0022505E0F5
:10419000042503E0082501E0102500BF1EE0754955
:1041A0002068884219D17648006800F4406048B120
:1041B000B0F5806F0AD0B0F5006F05D0B0F5406F54
:1041C00008D105E0002507E0022505E0042503E00D
:1041D000082501E0102500BF00E0102500BF65495B
:1041E000206888424AD135B1022D08D0042D08D06C
:1041F000082D0DD109E0FDF713FB06460CE0654ED6
:104200000AE0FDF731FB064606E04FF4004603E006
:1042100000260120009000BF00BF002E0AD0606879
:1042200000EB4000B04203D860680003B04202D205
:104230000120009098E002220023D4F804C06046D8
:104240001946FBF7BDFF4FF48072A6FB02238718C7
:104250005941D4F804C0624600233846FBF7B0FF4A
:104260008146B9F5407F06D3B9F5801F03D2206897
:10427000C0F80C9078E00120009075E0E069B0F59E
:10428000004F3CD1092D17D2DFE805F005090D16C6
:104290000F1616161300FDF7C3FA064610E0FDF7D9
:1042A000D1FA06460CE03B4E0AE0FDF7DDFA064681
:1042B00006E04FF4004603E000260120009000BF16
:1042C00000BF7EB37000616800EB5100B0FBF1F0FD
:1042D0001FFA80F9B9F1100F0ED3B9F5803F0BD258
:1042E0004FF6F07009EA000BC9F342004BEA000BED
:1042F0002068C0F80CB037E00120009034E0092DB0
:1043000018D2DFE805F005090D171017171714006C
:10431000FDF786FA064611E0FDF794FA06460DE031
:104320001C4E0BE020E0FDF79FFA064606E04FF436
:10433000004603E000260120009000BF00BF9EB1B0
:10434000606806EB50006168B0FBF1F01FFA80F97D
:10435000B9F1100F06D3B9F5803F03D22068C0F839
:104360000C9001E00120009000202066606600981B
:1043700000F012B800800040F369FFEF0038014000
:10438000881002400044004000480040004C0040BB
:10439000005000400024F40018BCBDE8E08F2DE977
:1043A000F04104460D4617469846069E45E0701CAF
:1043B000002842D0FCF73EFCA0EB0800B04200D839
:1043C000B6B92068006820F4D070216808602068C1
:1043D000806820F001002168886020206067A06765
:1043E00000BF002084F8700000BF0320BDE8F0810A
:1043F0002068006800F00400F8B12068C069C0F3CC
:10440000C020D0B14FF400602168086220680068C5
:1044100020F4D070216808602068806820F00100D6
:104420002168886020206067A067E06700BF0020E7
:1044300084F8700000BF0320D8E72068C0692840D6
:10444000A84201D1012000E00020B842AFD00020F6
:10445000CCE700BFFEE700000FB4054B10B503A981
:10446000044A029801F03CF810BC5DF814FB00000F
:10447000395C0008E40000200FB4084B10B504A913
:1044800002AA039801F02CF8044602A9002001F0CA
:10449000C1FB204610BC5DF814FB0000155C000851
:1044A00003B401984100009850EAC12018BF0420CD
:1044B0004A0D18BF40F0010040F2FF72B2EB515FAD
:1044C00008BF40F00200012808BF052002B0704775
:1044D00002480068C0F30220704700000CED00E0C5
:1044E00010B5002804DB0A07130E054A135406E032
:1044F0000A07140E034A00F00F031B1FD45410BD0B
:1045000000E400E018ED00E02DE9F04D2DED040B86
:104510002DED0E8B96B0DDE92550279CDDF890A09F
:1045200025F0004624F00048BAF1000F14BF012125
:10453000002101EB4502FC4953184A1093422AD34B
:10454000002814BF0123002303EB44030B44F74965
:104550008B4220D358EA00019FEDF59B76D0DFF81F
:10456000D8B35D4503D1BAF1000F05D188E0BAF1A7
:10457000000F08BF002100D0012101EB450111F51A
:10458000001F08D8002814BF0121002101EB4401BD
:1045900011F5001F0BD99DED261B9DED240B16B0C8
:1045A00000F0DABD04B0BDE8F04D00F081BE002798
:1045B000002DBCBFE149884521DAE1498845A8BF03
:1045C00002271CDAC3451ADCDE4901EB2851142905
:1045D00008DDC1F1340220FA02F101FA02F282424E
:1045E0000DD108E058B9C1F1140228FA02F101FA1C
:1045F00002F2424503D101F00101C1F1020756EA7E
:104600000A0124D1002C22DA002D18BF022F01D07C
:10461000012F0AD0022000F097FE16B000F0A2BDD4
:1046200004B0BDE8F04D00F02BBE022000F08CFE7F
:1046300000F026FE51EC100B81F0004141EC100B14
:1046400016B000F095BD04B0BDE8F08D18E09FED08
:10465000BEAB9FEDBF8B002871D1B848804522D1F9
:1046600005F1804010F5801008BFBAF1000F07D0A7
:10467000B3450ADC002CA8BF9DED260BE0DA0DE067
:10468000B0EE490AF0EE690ADAE7002C06DA9DED91
:10469000260B51EC100B81F000416FE0AE487844DE
:1046A00090ED000BCCE7D8454DD1002C48DA2EB167
:1046B00086423AD1BAF1000F42D126E0BAF1000F9A
:1046C00013D0022000F040FE00F00EFE8DED020B34
:1046D0009DED240B8DED000B10EE900A039961F314
:1046E0001E0003909DED020BAAE78DED02AB9DED40
:1046F000240B1AEE901A10EE900A8DED000B61F368
:104700001E0003909DED020B9AE78DED028B9DED4F
:10471000240B18EE901A10EE900A8DED000B61F349
:104720001E0003909DED020B8AE709DA9DED240B34
:1047300051EC190B53EC102BFBF7C5FE1EE020E0EB
:104740009DED240B7CE786421BDAB4F1804F0DD03F
:10475000A4F10050B0F1FF5013D1002D11DB9DEDFD
:10476000240B51EC100B01F0E3FA07E09DED240B54
:1047700053EC102B51EC100B00F0C2BC41EC100BB1
:104780005EE79DED240B51EC100B01F048FABAF1F5
:10479000000FCDE90E0142D19FED710B46B3A6F19A
:1047A000E040B0F17F600CD05E4538D1002D00DADA
:1047B000A7B3022F0CBF01204FF0FF30FBF7F2FE32
:1047C000DCE7002D01DD002C0DDA002D01DD002CD1
:1047D0001FDB002D16DA002C14DB012F08BF9FED24
:1047E000620B3FF42DAFB0EE4A0AF0EE6A0A27E7FB
:1047F000022F18BF002D0CD0012F0AD1002DFFF67B
:104800001FAF06E0002DB8BF002C08DA012F3FF4DF
:1048100017AFB0EE480AF0EE680A11E71BE001207E
:1048200000EBE57050EA070115D0791EB0EE498A19
:10483000F0EE698A084308BF9FED4D8B4E48002576
:10484000804570DD4D494E48884514DDB0420DDB92
:10485000002C19DB2FE0012000F076FD16B000F0EF
:104860008DBC04B0BDE8F04D00F02EBDB34502DCB8
:10487000002C09DC1FE0864202DA002C1BDA03E080
:104880005E452BDD002C16DD022000F05DFD00F002
:104890002BFD8DED020B53EC1A2B51EC180BFBF793
:1048A0009DFDCDE900010399019861F31E0003907D
:1048B0009DED020BC4E6022000F046FD00F024FD51
:1048C00010EE901A18EE900A8DED020B8DED008B14
:1048D00061F31E0003909DED020BB1E69DED0E0B02
:1048E00053EC192B51EC100BFBF76AFD9FED260BD7
:1048F000CDE9080153EC102B9DED080B51EC100B8A
:10490000FBF76CFD9FED221B53EC112BFBF75BFDBE
:104910009DED081B53EC112BFBF760FD9FED1E1B5B
:1049200053EC112B3CE08CE0FFFF1F00FFFF0F005A
:10493000000000000000F03F0000F03F0000F07FAA
:104940000000404301FCFFFF000000000000F07F7A
:104950000000000000000000D67800000000000009
:104960000000000000000080000000000000F0FFD8
:10497000000000000000F0BF0000E0410000F04334
:10498000FFFFEF3F00000000000000000000D03FEC
:10499000555555555555D53F000000000000E03FE6
:1049A000FBF711FD9DED080B41EC1A0B53EC102B9E
:1049B00051EC100BFBF712FD53EC1A2BFBF70EFD1D
:1049C00041EC1A0B9FEDFE0B53EC102B9DED080BE9
:1049D00051EC100BFBF702FD41EC1B0B9FEDFA0BAA
:1049E00051EC1A0B53EC102BFBF7F8FC41EC1A0BB3
:1049F0009FEDF70B53EC102B9DED080B51EC100BBA
:104A0000FBF7ECFC53EC1A2BFBF7DAFC41EC1A0B2E
:104A100051EC1B0B53EC1A2BFBF731FC0690CDE944
:104A200006519DED060B53EC1B2B51EC100BFBF7C5
:104A3000C7FC53EC1A2BFBF7C6FC41EC100B00F043
:104A4000A1B90020B6F5801F0EDA9FEDE30B53EC01
:104A5000102B9DED0E0B51EC100BFBF7BFFCCDE9BD
:104A60000E016FF034000E4600EB2650A0F2FF3727
:104A7000C6F31300DA4940F07F6646F0405688429C
:104A8000D8BF002408DDD7498142C8BF012403DC18
:104A90000024A6F580167F1CD348784400EBC400A0
:104AA0000F9690ED00CB9DED0E0B53EC1C2B51ECB3
:104AB000100BFBF785FC9DED0E0B41EC1B0B53EC33
:104AC0001C2B51EC100BFBF7DAFB41EC100B51ECFB
:104AD000190B53EC102BFBF7F6FC41EC1D0B51ECC2
:104AE0001B0B53EC1D2BFBF779FC41EC1A0BBF4859
:104AF0008DED10AB7844109590ED000B4FF0005009
:104B000040EA660000EB84408DED080B00F50020C4
:104B100009909DED080B53EC1C2B51EC100BFBF78F
:104B20004FFC9DED0E1B53EC112BFBF74CFC41ECA5
:104B3000100B53EC102B9DED100B51EC100BFBF7F1
:104B40004DFC9DED080B41EC1C0B53EC102B9DED27
:104B5000100B51EC100BFBF741FC53EC1B2BFBF73C
:104B600032FC53EC1C2BFBF72BFC53EC1D2BFBF7FF
:104B700035FC41EC1C0B53EC1A2B51EC1A0BFBF7D8
:104B80002DFC41EC1B0B9A480621B0EE4B0AF0EECF
:104B90006B0A784400F0F8FAB0EE401AF0EE601AB2
:104BA000B0EE41DAF0EE61DA53EC1B2B51EC1B0B4B
:104BB000FBF714FC53EC1D2BFBF710FC9DED100BC9
:104BC00041EC1B0B53EC1A2B51EC100BFBF757FB72
:104BD00053EC1C2BFBF702FC53EC1B2BFBF74FFB9E
:104BE0009DED100B41EC1B0B53EC102B51EC100BFB
:104BF000FBF7F4FB41EC1D0B9FED7FEB53EC1E2B01
:104C0000FBF73DFB53EC1B2BFBF739FB0890CDE981
:104C100008519DED080B53EC1E2B51EC100BFBF7CC
:104C2000CFFB53EC1D2BFBF7CBFB53EC1B2BFBF704
:104C3000CAFB9DED080B41EC1D0B53EC102B9DEDB9
:104C4000100B51EC100BFBF7C9FB41EC1B0B53ECA9
:104C50001A2B51EC1D0BFBF7C1FB9DED080B41EC32
:104C60001A0B53EC102B51EC1C0BFBF7B7FB53EC5E
:104C70001A2BFBF704FB41EC1A0B51EC1B0B53EC0A
:104C80001A2BFBF7FCFA0C90CDE90C519DED0C0BA7
:104C900053EC1B2B51EC100BFBF792FB53EC1A2B34
:104CA000FBF791FB41EC1B0B9FED550B53EC102BCD
:104CB0009DED0C0B51EC100BFBF790FB41EC1A0B2C
:104CC0009FED510B51EC1B0B53EC102BFBF786FBAC
:104CD00041EC1B0B9FED4E0B53EC102B9DED0C0B81
:104CE00051EC100BFBF77AFB53EC1B2BFBF7C7FACD
:104CF00041EC100B4848784400EBC40090ED001BD9
:104D000051EC100B53EC112BFBF7B9FA41EC1B0BD8
:104D10003846FBF747FCCDE9080153EC1B2B51EC5F
:104D20001A0BFBF7ACFA41EC100B3C48784400EB53
:104D3000C40090ED00CB51EC100B53EC1C2BFBF797
:104D40009EFA9DED081B53EC112BFBF798FA069089
:104D5000CDE906519DED080B53EC102B9DED060B94
:104D600051EC100BFBF72CFB53EC1C2BFBF728FB37
:104D700053EC1A2BFBF724FB53EC1B2BFBF723FB09
:104D800041EC100B9DED261B53EC102B8DED001B01
:104D900000959DED260B51EC100BFBF71FFB9DEDD5
:104DA000000B41EC1A0B53EC102B9DED260B51EC34
:104DB000100BFBF705FB9DED061B53EC112B2FE0B1
:104DC000000000604715F73FFE822B654715F73F4F
:104DD00044DF5DF80BAE543E00000000000040438D
:104DE0008E9803007AB60B005274000080740000A5
:104DF0008A7300000000000000000000000008406E
:104E0000000000E009C7EE3FFD033ADC09C7EE3FB2
:104E1000F5015B14E02F3EBE16720000D071000059
:104E2000FBF7DCFA53EC1A2BFBF729FA9DED060B86
:104E300041EC1A0B53EC102B9DED000B51EC100BB9
:104E4000FBF7CCFACDE90C019DED0C0B51EC1A0BE4
:104E500053EC102BFBF713FACDE902010C46AA49DB
:104E60008C422FDB611A084318D19DED0C0B53ECDB
:104E7000102B9DED020B51EC100BFBF7A1FA41EC4E
:104E80001B0B9FEDA30B51EC1A0B53EC102BFBF7F4
:104E9000F6F953EC1B2BFBF78FFC2DD2022000F010
:104EA00053FA00F021FA10EE901A18EE900A8DEDE8
:104EB000020B8DED008B61F31E0003909DED020B44
:104EC000FFF7BEBB944A24F00041914214D39349AA
:104ED000214408437FF4EFAC9DED0C0B53EC102BF9
:104EE0009DED020B51EC100BFBF76AFA53EC1A2BF9
:104EF000FBF762FC7FF6DFAC24F000408849894A6A
:104F0000002601EB205182422BDA481C4FF480111D
:104F100021FA00F02044844AC0F30A517A44A1F2F5
:104F2000FF3192ED000B814A8DED080BCA4020EA5B
:104F30000202C0F3130040F48010C1F1140120FA02
:104F400001F60992002CB8BF76429DED080B53EC98
:104F5000102B9DED0C0B51EC100BFBF731FACDE94A
:104F60000C019DED0C0B51EC1A0B53EC102BFBF7C5
:104F700086F99FED6F0B0890CDE9085153EC102B8B
:104F80009DED080B51EC100BFBF728FA41EC1B0BC5
:104F90009FED690B53EC102B9DED080B51EC100BA2
:104FA000FBF71CFA9DED0C0B41EC1C0B53EC102B8A
:104FB0009DED080B51EC100BFBF702FA53EC1A2B8A
:104FC000FBF701FA9FED5E1B53EC112BFBF706FA82
:104FD00053EC1C2BFBF753F941EC1A0B51EC1B0B58
:104FE00053EC1A2BFBF74BF9CDE902019DED020BB7
:104FF00053EC1B2B51EC100BFBF7E2F953EC1A2B83
:10500000FBF7E1F99DED020B41EC1A0B53EC102B71
:1050100051EC100BFBF7E2F9CDE908014A489DED90
:10502000080B0521784400F0AFF89DED081B51EC0A
:10503000100B53EC112BFBF7D1F99DED021B53EC38
:10504000112BFBF7C0F9CDE906019DED020B53ECE6
:105050001A2B51EC100BFBF7C1F953EC1A2BFBF791
:105060000EF99FED3B0B41EC1A0B53EC102B9DED11
:10507000060B51EC100BFBF7A3F99DED060B41EC71
:105080001B0B53EC102B9DED020B51EC100BFBF79F
:10509000A5F953EC1B2BFBF716FA53EC1A2BFBF775
:1050A0008FF99DED021B53EC112BFBF789F953ECA3
:1050B000192BFBF788F9CDE9020101EB0650011528
:1050C0000029C8BF039015DC9DED020B324651EC60
:1050D000100BFBF742FBFFF7E3F9042808BF00F0D1
:1050E00013F932469DED020B51EC100BFBF735FB2B
:1050F000CDE902019DED020B51EC180B53EC102B86
:10510000FBF76CF9FFF73ABB00009040000000008D
:10511000FE822B654715973C00CC904000346F3FD2
:1051200001FCFFFF0000E03F58700000FFFF0F0090
:1051300000000000432EE63F396CA80C615C20BEE5
:10514000EF39FAFE422EE63F286F00000000000013
:105150000000000000000040BDEC088BBDEC06CB59
:10516000FFF720BABDEC088BBDEC06CBFFF758BAB1
:10517000BDEC088BBDEC06CBFFF765BABDEC088B28
:10518000BDEC06CBFFF76DBB70B504462DED028B71
:105190004D1E00EBC500B0EE408AF0EE608A90ED47
:1051A000000B35F0060017D053EC182B51EC100B08
:1051B000FBF714F941EC100B6D1E04EBC50090EDEC
:1051C000001B51EC100B53EC112BFBF758F841EC82
:1051D000100B35F00600E7D1022D36D0042D1CD07F
:1051E000062D1CBFBDEC028B70BD53EC182B51EC8F
:1051F000100BFBF7F3F894ED0A1B53EC112BFBF7A4
:105200003EF853EC182BFBF7E9F894ED081B53EC30
:10521000112BFBF734F841EC100B53EC182B51EC2D
:10522000100BFBF7DBF894ED061B53EC112BFBF78F
:1052300026F853EC182BFBF7D1F894ED040B53EC44
:10524000102BFBF71CF841EC100B53EC182B51EC16
:10525000100BFBF7C3F894ED021B53EC112BFBF77B
:105260000EF853EC182BFBF7B9F894ED001B53EC38
:10527000112BFBF704F8BDEC028B41EC100B70BD59
:105280009FED070B10B553EC102B9FED070B51EC66
:10529000100BFBF718F941EC100B10BD00000000DB
:1052A0000000000000000000000000000000F03FCF
:1052B00010B553EC112B51EC100BFAF7E0FF41EC59
:1052C000100B10BD000000009FED050B10B553EC56
:1052D000102B51EC100BFBF7F6F841EC100B10BD46
:1052E00000000000000000009FED050B10B553EC1E
:1052F000102B51EC100BFBF771F841EC100B10BDAB
:1053000000000000000000709FED050B10B553EC8D
:10531000102B51EC100BFBF761F841EC100B10BD9A
:10532000000000000000001002E008C8121F08C1C1
:10533000002AFAD170477047002001E001C1121F16
:10534000002AFBD170470000014908607047000047
:10535000E80000202DE9FF5F82B00021DDE9043084
:10536000020DDDF840B0034318D044F61050A2F20D
:10537000FF3242431514119801281FD0A5EB0B00F2
:10538000401C5FEA000A4FF000064E4FDFF83891EC
:10539000B046504615D5CAF1000413E01198012417
:1053A0004AA3012801D16FEA0B010298119AC0E9C2
:1053B0000031C0E9024206B000F08EB8CBF1000027
:1053C000DFE704460021404A491842EB0450CDE98A
:1053D000001012E0E00707D032463B4640464946FF
:1053E000FAF7FCFF8046894632463B46104619468E
:1053F000FAF7F4FF06460F466410002CEAD1DDE907
:105400000401DDE90023BAF1000F06DAFAF7E6FF3E
:1054100042464B46FAF7E2FF05E0FBF754F84246F6
:105420004B46FBF750F804460E460022284BFBF78C
:10543000C3F903D84FF0FF30014607E00022254BA7
:1054400020463146FAF71BFFFBF79EF9102409E0CE
:10545000002C0ADB0A220023FAF7B2FE039B30324B
:105460001A55641E50EA0102F2D1641C039AC4F179
:1054700011031444119A012A03D0012208430DD1CB
:105480000AE0084304D000204FF0110B119072E79E
:10549000A3EB0B056D1E0DE05B4504DD4FF0000234
:1054A00005F1010504E003DA4FF00002A5F1010562
:1054B000002AECD002981199C0E90231C0E90045F8
:1054C00079E70000000014400000F03F30000000C9
:1054D0000000F0430000E03F30BCBDE8C09F00008A
:1054E0002DE9FF4F95B09B468946064600250FE201
:1054F000252877D100242746F84A0121059400E0A9
:10550000044316F8013F203B01FA03F01042F7D1A3
:1055100030782A2811D06FF02F033078A0F13002B4
:10552000092A16D8059A44F0020402EB820203EB22
:1055300042021044761C0590EFE759F8042B0592BF
:10554000002A03DA504244F40054059044F0020467
:10555000761C30782E2816D116F8010F44F004047A
:105560002A280DD06FF02F023078A0F13003092BDC
:1055700009D807EB870302EB4303C718761CF3E750
:1055800059F8047B761C30786C280FD006DC4C2848
:1055900017D068280DD06A2814D104E0742810D0E0
:1055A0007A280FD10DE044F400140AE044F480148A
:1055B00001E044F440147278824202D104F5801470
:1055C000761C761C307866280BD013DC582877D0F0
:1055D00009DC002875D04528F6D04628F4D04728A5
:1055E0001AD19DE118E0632835D0642879D0652868
:1055F00012D195E1702873D008DC6728F1D06928B2
:105600006FD06E280DD06F2806D1B5E073282CD04E
:10561000752875D0782874D05A46179990476D1C14
:1056200075E1C4F30250022809D003280DD0D9F83F
:10563000001004280DD00D6009F1040967E1D9F8C4
:105640000010EA17C1E90052F6E7D9F800100D8002
:10565000F2E70D70F0E719F8041B8DF80010002038
:105660008DF80100EA46012003E059F804AB4FF041
:10567000FF3061074FF0000102D40DE008F1010195
:105680008846B9420FDA8045F8DB1AF8081000297D
:10569000F4D108E008F1010188468142FADB1AF8EA
:1056A00008100029F6D105985B46A0EB08072146B3
:1056B0003846179A00F097FA284400EB080507E0EF
:1056C0004DE029E10DE01AF8010B5A461799904771
:1056D000B8F10108F7D25B4621463846179A13E124
:1056E00042E00A220092C4F302524FF0000A022A5A
:1056F00008D059F804CB032A4FEAEC710AD00DE028
:1057000029E02AE009F1070121F00702F2E802C1CD
:10571000914609E00FFA8CFC4FEAEC71042A03D1A0
:105720004FFA8CFC4FEAEC71002907DA0A46002197
:10573000DCF1000C61EB02012D2202E0220504D510
:105740002B228DF80420012203E0E20701D0202261
:10575000F7E7904659E00A2102E010220DE01021FF
:105760004FF0000A00910BE010224FF0000A44F0C5
:1057700004040827009203E008224FF0000A009278
:10578000C4F30252022A05D059F804CB0021032A9F
:1057900008D009E009F1070121F00702F2E802C18F
:1057A000914605E01FFA8CFC042A01D10CF0FF0C95
:1057B0004FF00008220728D5702806D0009B83F000
:1057C000100353EA0A0305D00EE040228DF80420AE
:1057D000012208E05CEA010206D030228DF80420A4
:1057E0008DF8050002229046009B83F0080353EADF
:1057F0000A030AD15CEA010201D1620705D5302211
:105800008DF804204FF001087F1E582804D034A0E2
:1058100003900EA802900DE036A0F9E753466046CB
:10582000009AFAF7CDFC84460398825C0298401EE9
:10583000029002705CEA0100F0D1029806A9081AF1
:1058400000F1200A600702D524F4803400E001272B
:10585000574502DDA7EB0A0000E0002000EB0A013B
:10586000009005984144401A0590E00306D45B4639
:105870002146179A059800F0B6F90544002706E07E
:1058800001A85A46C05D179990476D1C7F1C47457B
:10589000F6DBE0030CD55B462146179A059800F02D
:1058A000A2F9054404E030205A46179990476D1C30
:1058B0000099481E00900029F5DC08E00298029942
:1058C0005A460078491C0291179990476D1CBAF10D
:1058D0000001AAF1010AF1DC65E1000009280100DC
:1058E0003031323334353637383961626364656656
:1058F0000000000030313233343536373839414218
:10590000434445460000000000F05BF90544761C66
:10591000307800287FF4ECAD19B0284600F04EB97D
:10592000620700D4062709F1070222F0070CFCE801
:105930000223E14603F000485FEA080C02D00FF2B0
:10594000702C0DE05FEA045C02D50FF2682C07E0D2
:105950005FEAC47C02D00FF2602C01E0AFF2700C61
:105960004FF0FF3823F00043CDF850C065280CD02D
:1059700006DC452809D046281DD047283DD13DE00A
:10598000662818D067287ED138E00021112F01DB6E
:10599000112000E0781CCDE9000106A90EA8FFF750
:1059A000D9FCDDE90F010E9A03910021009207F165
:1059B000010A04914DE04FF000400097CDE901103D
:1059C00006A90EA8FFF7C6FCDDE90F0203920E9BA5
:1059D00011990022DDF80CA00093049211B9791CF2
:1059E00000EB010AB7EB0A0004D4C0F1FF3007F165
:1059F000010A0490AAEB0700019044E0012F00DAAD
:105A000001270021112F01DD112000E03846CDE9EA
:105A1000000106A90EA8FFF79DFCDDE90F010E9A13
:105A20000391002104910092BA4621070CD40399F6
:105A3000514500DA8A46BAF1010F05DD009AAAF154
:105A40000101515C302908D0B84202DA10F1040F8C
:105A500006DA0121CDE9011015E0AAF10101E9E71B
:105A6000002805DC049901440491AAEB000102E03E
:105A7000411C514500DD8A460499401A401C0190A2
:105A80004FF000400290200704D40198504501DBFC
:105A9000CDF8048000208DF84F0002980DF14F07DB
:105AA000B0F1004F25D02B200E9002984FF0020845
:105AB00000280CDA404202902D200E9007E00A21C7
:105AC0000298FAF7A6FD3031029007F8011DB8F1EF
:105AD0000001A8F10108F2DC02980028EFD1791E3C
